S0220000687474703A2F2F737265636F72642E736F75726365666F7267652E6E65742F1D
S123000000000220A1BA0408E5BA0408E5030408E5BA0408E5BA0408E5BA040800000000B3
S1230020000000000000000000000000CD750408E5BA04080000000089760408F576040841
S1230040E5BA0408E5BA0408E5BA0408E5BA0408E5BA0408E5BA0408E5BA0408E5BA040844
S1230060E5BA0408E5BA0408E5BA0408E5BA0408E5BA0408E5BA0408E5BA0408E5BA040824
S1230080E5BA0408E5BA0408E5BA0408E5BA0408E5BA0408E5BA0408E5BA0408E5BA040804
S12300A0E5BA0408E5BA0408E5BA0408E5BA0408E5BA0408E5BA0408E5BA0408E5BA0408E4
S12300C0E5BA0408E5BA0408E5BA0408E5BA0408E5BA040859B50408E5BA0408E5BA040855
S12300E0E5BA0408E5BA0408E5BA0408E5BA0408E5BA0408E5BA0408E5BA0408E5BA0408A4
S1230100E5BA0408E5BA0408E5BA0408E5BA0408E5BA0408E5BA0408E5BA0408E5BA040883
S1230120E5BA0408E5BA0408E5BA0408E5BA0408E5BA0408E5BA0408E5BA0408E5BA040863
S1230140E5BA0408E5BA0408E5BA0408E5BA0408E5BA0408E5BA0408E5BA0408E5BA040843
S1230160E5BA0408E5BA0408E5BA0408E5BA0408E5BA0408E5BA0408E5BA0408E5BA040823
S1230180E5BA0408E5BA04080000000000000000134B002B08BF114B9D46A3F5803A002103
S12301A08B460F461148124A121A0BF06BFD0D4B002B00D098470C4B002B00D0984700204E
S12301C0002104000D000B480BF0B1FC0BF0FEFC2000290000F0CBF80BF0B0FC000008004E
S12301E0000000000000000000000000A40400206033012065BB0408F4E00408000400204F
S1230200A4040020A404002060330120BFF34F8F0549CA6802F4E062044B1343CB60BFF3CC
S12302204F8F00BFFDE700BF00ED00E00400FA0538B50125094C636843F00103636029460E
S1230240012007F071FB85F00105642005F090FE636823F001036360ECE700BF000000203D
S123026070B582B0384B9D6901200BF067F840E001200BF063F8B4F1FF3F0AD10A2005F0AB
S123028077FE01A80BF08CF80446B0F1FF3FF2D1EEE7002C33D02946019807F06BFB002840
S12302A031D0019807F0BEFB002833D0274901980BF08EF8002834D0254901980BF088F88D
S12302C0002839D001980BF089F8224C019920460BF089F81C4E70613A231B7804F5C334CF
S12302E084F8A03002200BF029F8736823F002037360154A536843F002035360BEE70320DD
S12303000BF01CF8F5E701980BF068F803200BF015F8EEE701980BF061F803200BF00EF8E9
S1230320E7E701980BF05AF802200BF007F8064B01221A61FFF76AFF01980BF04FF802209E
S12303400AF0FCFFD5E700BF0000002010DB040814DB04080000001008B507F0A7FA0AF0B8
S1230360E9FF01214FF4805002F044FA08BD10B582B0164B02221A6000245C609A60DA605D
S12303801C615C614FF480214FF0006003F030F8FFF7E2FF0E480AF052FF019407230093B7
S12303A0234643F6DC720B490B4805F0EFF9019401230093234682220849094805F0E6F9F6
S12303C005F0FEFB204602B010BD00BF0000002018DB04082CDB04086102040844DB0408BB
S12303E03102040808B5FFF711FF00BF82B00023019300932A4A136843F480331360284BFD
S12304001B6803F400330093019B01330193009B1BB9019BB3F5A04FF1D1214B1B6813F4DA
S1230420003F06D001230093009B012B04D002B0704700230093F7E7194B1A6C42F0805266
S12304401A6418490A6842F440420A609A689A609A6842F400429A609A6842F4A0529A6091
S1230460114A5A601A6842F080721A600C4B1B6813F0007FFAD00D4B40F205721A60A3F50A
S123048080639A6822F003029A609A6842F002029A60034B9B6803F00C03082BF9D1C6E733
S12304A0003802400070004019544007003C024010B5104CD4F8883043F47003C4F8883019
S12304C00D4B1A6842F001021A60002199601A6822F0847222F480321A60084A5A601A681B
S12304E022F480221A60D960FFF780FF4FF00063A36010BD00ED00E00038024010300024FB
S1230500224B9B6803F00C03042B15D0082B17D01BB11F4B1F4A1A6002E01D4B1D4A1A60F3
S12305201A4B9B68C3F30313194A13441B79D9B21368CB4013607047154B164A1A60EFE7EA
S1230540124B5A685B6803F03F0312F4800F13D0104AB2FBF3F20D4B5B68C3F3881303FBB2
S123056002F30A4A5268C2F3014201325200B3FBF2F3074A1360D3E7064AB2FBF3F2034BB6
S12305805B68C3F3881303FB02F3EAE7003802400004002000127A0008B5454B984228D036
S12305A0444B98422ED0444B984234D0434B98423AD0434B984240D0424B984246D0424B6F
S12305C098424CD0414B984252D0414B984258D0404B984260D0404B984212D101214FF4C9
S12305E0806002F04DF900214FF4806002F048F907E00121084602F043F90021012002F0AF
S12306003FF908BD0121022002F03AF90021022002F036F9F5E70121042002F031F90021AD
S1230620042002F02DF9ECE70121082002F028F90021082002F024F9E3E70121102002F0E4
S12306401FF90021102002F01BF9DAE70121202002F016F90021202002F012F9D1E70121CB
S1230660402002F00DF90021402002F009F9C8E70121802002F004F90021802002F000F99D
S1230680BFE701214FF4807002F0FAF800214FF4807002F0F5F8B4E701214FF4007002F0E2
S12306A0EFF800214FF4007002F0EAF8A9E700BF000002400004024000080240000C024038
S12306C0001002400014024000180240001C024000200240002402400028024000230F2B27
S12306E041D8F0B425E082681640866082684D79A5402A43826045689FB20126BE4025EAF8
S12307000605456045688A79BA4092B22A434260C2689DB26E000325B54022EA0502C260EF
S1230720C268CD7905FA04F41443C46001330F2B17D801229A400C68A243F7D105685C008F
S12307400322A240D64325EA0202026002680D79A5402A4302600A79013AD2B2012AD7D840
S1230760C1E7F0BC704770474FF6FF7303600023037143718371C371704782B04FF4803347
S12307800193019B0B430193019BC361C161019BC361C3690193C369019302B0704703694C
S12307A0194201D00120704700207047006980B270474369194201D0012070470020704781
S12307C0406980B2704701837047418370470AB101837047418370474161704743695940BE
S12307E04161704730B401F007039B0002FA03F4C908083150F821200F2505FA03F322EA67
S1230800030340F8213050F82120224340F8212030BC704730B4048CA4B224F00104A4B202
S12308200484058BADB2048CA4B225F0F3051B019BB213431D4324F00A040C4344F0010481
S12308400583048430BC704730B4058CADB225F01005ADB20584058B048CA4B2090189B240
S123086025F440752D052D0D1B039BB22B43120292B21A4324F0A0040C4344F010040283D8
S1230880048430BC704770B4068CB6B226F48076B6B20684858BADB2048CA4B2090289B26E
S12308A025F0F3051B019BB213431D4324F420640C4344F480748583048470BC704730B49A
S12308C0048CA4B224F48054A4B20484858B048C090389B225F440752D052D0D120292B2EB
S12308E02A431B039BB2134324F400546404640C214341F480518383018430BC704708B52D
S1230900574B984231D0B0F1804F37D0554B98423DD0554B984243D0544B984249D0544B9A
S123092098424FD0534B984255D0534B98425BD0524B984261D0524B984269D0514B9842AC
S123094071D0514B984279D0504B98427FD0504B984212D101214FF4807001F0BBFF002156
S12309604FF4807001F0B6FF07E00121084601F0BFFF0021012001F0BBFF08BD0121084672
S123098001F0A8FF0021012001F0A4FFF5E70121022001F09FFF0021022001F09BFFECE795
S12309A00121042001F096FF0021042001F092FFE3E70121082001F08DFF0021082001F0D5
S12309C089FFDAE70121102001F084FF0021102001F080FFD1E70121202001F07BFF00219D
S12309E0202001F077FFC8E70121022001F080FF0021022001F07CFFBFE701214FF480307F
S1230A0001F076FF00214FF4803001F071FFB4E701214FF4003001F06BFF00214FF40030D8
S1230A2001F066FFA9E701214FF4802001F060FF00214FF4802001F05BFF9EE70121402021
S1230A4001F048FF0021402001F044FF95E70121802001F03FFF0021802001F03BFF8CE7D9
S1230A60000001400004004000080040000C004000100040001400400004014000400140EF
S1230A80004401400048014000180040001C00400020004003889BB21B4A904212D002F548
S1230AA0806290420ED0B0F1804F0BD0A2F58032904207D002F58062904203D002F580620C
S1230AC0904203D123F070034A8813430F4A904208D002F58062904204D023F440739BB225
S1230AE00A89134303804B68C3620B880385064B984203D003F58063984201D18B7A038680
S1230B0001238382704700BF00000140001000404FF0FF33436000230380038143808372AB
S1230B20704701858282704703889BB223F070030B430380704741627047C1627047406AF5
S1230B407047008D704721B1038843F002030380704703889BB223F002039BB20380704750
S1230B6021B1038843F004030380704703889BB223F004039BB20380704721B1038843F097
S1230B8080030380704703889BB223F080039BB20380704703889BB223F008039BB20380D9
S1230BA0038819430180704703889BB223F440739BB20380038819430180704721B1038824
S1230BC043F001030380704703889BB223F001039BB20380704730B4038C9BB223F0010353
S1230BE09BB20384038C9BB28588ADB2028B92B222F073020C88224323F002038C891C43F8
S1230C004B8823430D4CA04203D004F58064A0420DD123F00803CC89234323F004038C88E5
S1230C20234325F440750C8A25434C8A2543858002838A684263038430BC704700000140B4
S1230C4030B4038C9BB223F010039BB20384038C9BB28588ADB2048BA4B224F4E6440A88D5
S1230C60120292B2144323F020038A89120192B21A434B881B019BB21343124A904203D031
S1230C8002F58062904215D123F08003CA89120192B2134323F040028B881B019BB2134302
S1230CA025F440650A8A920092B215434A8A920092B21543858004838A688263038430BCD8
S1230CC0704700BF0000014030B4038C9BB223F480739BB20384038C9BB28588ADB2848B64
S1230CE0A4B224F073040A88144323F400738A89120292B21A434B881B029BB21343124AE5
S1230D00904203D002F58062904215D123F40063CA89120292B2134323F480628B881B02F5
S1230D209BB2134325F440550A8A120192B215434A8A120192B21543858084838A68C26375
S1230D40038430BC704700BF0000014030B4038C9BB223F480539BB20384038C9BB28588FE
S1230D60ADB2828B92B222F4E6440A88120292B2224323F400538C892403A4B21C434B8802
S1230D801B039BB223430A4CA04203D004F58064A04205D125F480450C8AA401A4B2254307
S1230DA0858082838A680264038430BC704700BF0000014000230380438083808360838150
S1230DC0C38103824382704730B400F1180501238B409BB2048C24EA0303038481B108290E
S1230DE00ED00439C1F34E014B5923F4E0431B041B0C4B514B59120292B21A434A5109E034
S1230E0049084B5923F070031B041B0C4B514B591A434A5130BC704741637047816370473C
S1230E20C163704701647047038B9BB223F070030B4303837047038B9BB223F4E0430902AB
S1230E4089B20B4303837047838B9BB223F070030B4383837047838B9BB223F4E04309023C
S1230E6089B20B4383837047038B9BB223F008030B4303837047038B9BB223F40063090244
S1230E8089B20B4303837047838B9BB223F008030B4383837047838B9BB223F40063090224
S1230EA089B20B4383837047038B9BB223F004030B4303837047038B9BB223F48063090288
S1230EC089B20B4303837047838B9BB223F004030B4383837047838B9BB223F48063090268
S1230EE089B20B4383837047038B9BB223F080030B4303837047038BC3F30E03090289B211
S1230F00194301837047838B9BB223F080030B4383837047838BC3F30E03090289B21943C3
S1230F2081837047038C9BB223F002030B4303847047038C9BB223F008030B4303847047EC
S1230F40038C9BB223F02003090189B20B4303847047038C9BB223F08003090189B20B43A5
S1230F6003847047038C9BB223F40073090289B20B4303847047038C9BB223F40063090296
S1230F8089B20B4303847047038C9BB223F40053090389B20B430384704710B401238B40BA
S1230FA09BB2048C24EA03030384038C8A4092B21A4302845DF8044B704710B404238B4024
S1230FC09BB2048C24EA03030384038C8A4092B21A4302845DF8044B704700230380438051
S1230FE001228280C38003817047406B7047806B7047C06B7047006C7047038B9BB223F053
S12310000C039BB20383038B194301837047038B9BB223F440639BB20383038B090289B289
S1231020194301837047F8B505460C464988C9B90226A288012A17D001272388B3B9238929
S12310402846FFF7E7FBE1882846FFF7D6FF23893A4631462846FFF7F7FBE1882846FFF7DE
S1231060D6FFF8BD0026E4E70227E6E723892846FFF7EAFBE1882846FFF7C9FF23893A4645
S123108031462846FFF7C6FBE1882846FFF7B5FFE7E7838B9BB223F00C039BB28383838B83
S12310A0194381837047838B9BB223F440639BB28383838B090289B219438183704738B555
S12310C005460C460B886BB1042B15D0082B1DD00B898A884988FFF7F2FBE1882846FFF765
S12310E0E2FF38BD0B898A884988FFF793FBE1882846FFF782FFF4E70B898A884988FFF785
S1231100A3FBE1882846FFF782FFEAE70B898A884988FFF7B8FBE1882846FFF7BAFFE0E7A1
S1231120F0B40F88B1F802C08E88CD880C894A898B8947EA0C013143294321430A431343F9
S1231140A0F84430F0BC70470023038043808380C380038143818381704731B1B0F844306C
S123116043F40043A0F844307047B0F84430C3F30E03A0F84430704721B1838843F0040371
S12311808380704783889BB223F004039BB28380704721B1838843F001038380704783883F
S12311A09BB223F001039BB2838070471AB18389194381817047838923EA01018181704700
S12311C081827047038A194201D00120704700207047C94389B201827047028A83890B4085
S12311E0114202D01BB9002070470020704701207047C94389B2018270471143A0F84810A7
S123120070471AB18389194381817047838923EA01018181704721B1838843F00803838035
S1231220704783889BB223F008039BB28380704703899BB223F007039BB20381704703896C
S12312409BB223F070030B430381704710B50446FFF7F5FF238943F00703238110BD38B5EE
S123126004460D461146602D0BD00122FFF7D2FA29462046FFF7E3FF238943F007032381EF
S123128038BD0122FFF7E0FAF2E783889BB223F070039BB2838083881943818070470389B0
S12312A09BB223F007039BB20381038919430181704703899BB223F080039BB20381038902
S12312C019430181704710B40489E4B21B029BB213430B43234303815DF8044B704710B576
S12312E00446FFF7F0FF238943F07703238110BD10B50446FFF7E7FF238943F480432381BC
S123130010BD70B40689B6B2048BA4B2058CADB226F007060E4324F4407424F0030444F479
S1231320807444F0010425F022051B019BB21A43154306810483058470BC704721B18388CB
S123134043F080038380704783889BB223F080039BB283807047A0F85010704708B5012196
S12313604FF4006001F0B6FA00214FF4006001F0B1FA08BD034A536823F4C07303435360B5
S1231380704700BF002C004082B000230193074A536823F07F03019300F07F00019B1843E3
S12313A00190019B536002B0704700BF002C0040014B01221A607047A480054200F07F003B
S12313C0014B1860704700BF002C004040F08000014B1860704700BF002C0040034B9B68BC
S12313E00BB1012070470020704700BF002C0040014B00229A607047002C0040034688B93E
S12314004FF0204243F2DB0142F82010581C6FF070424FF0204141F8202001F5827141F8EC
S1231420232070474FF0204243F2D20142F82010ECE7436882681343C2681343026913439C
S12314404269134382691343C2691343026A1343426A1343826A1343C26A1343026B016867
S123146013434FF0204242F821308368082B23D0426B1368516843EA0113916843EA012369
S1231480D16843EA0143116943EA0153516943EA01639169026801320B434FF0204141F89A
S12314A02230C36AB3F5804F0ED00268114B6FF0704143F822107047016852F8213043F023
S12314C0400342F82130D3E7826B1368516843EA0113916843EA0123116943EA015351691F
S12314E043EA0163926901681343024A42F82130704700BF040100A010B40023036002223D
S123150042608360C360036143618361C36103624FF4805242624FF400528262C3620363ED
S1231520416B0F220A60416B4A60446BFF21A160446BE260446B2261446B6261446BA361F2
S1231540846B2260846B6260846BA160816BCA60816B0A61816B4A61826B93615DF8044BEC
S1231560704741B14FF0204252F8203043F0010342F8203070474FF0204252F82010024BA3
S12315800B4042F820307047FEFF0F00102809D0094B18221A6040225A604FF0FC329A6013
S12315A0DA607047054B18221A6040225A604FF0FC329A60DA607047800000A0600000A09E
S12315C030B4436882681343C268134302691343426943EA4223826943EA423343F00803EF
S12315E0C4692268616842EA0121A26841EA0241E26841EA0261046A2268656842EA0522B1
S1231600A56842EA0542E46842EA04620068102805D0054803608160C26030BC7047034852
S123162003608160C260F8E7800000A0600000A010230360002343608360C36003614361D7
S12316408361C269FC231360C2695360C2699360C269D360026A1360026A5360026A93602E
S1231660026AD360704769B1102805D00C4A136843F00403136070470A4A136843F00403AB
S123168013607047102805D0054A1168064B0B4013607047034A1168034B0B4013607047F8
S12316A0800000A0600000A0FBFF0F0069B1102805D00D4A136843F04003136070470B4A0F
S12316C0136843F0400313607047102805D0064A1168074B0B4013607047044A1168044B38
S12316E00B401360704700BF800000A0600000A0BFFF0F00102802D0024B58697047024BA9
S123170058697047800000A0600000A0054B18221A6000225A604FF0FC329A60DA601A6131
S1231720704700BFA00000A010B40368426843EA4223826843EA423343F01003144A1360E1
S1231740C1680B684C6843EA04238C6843EA0443C96843EA0163936001690B684C6843EA06
S123176004238C6843EA0443C96843EA0163D36041690B68486843EA0023886843EA004364
S1231780C96843EA016313615DF8044B704700BFA00000A00023036043608360C268FC2360
S12317A01360C2685360C2689360C268D3600269136002695360026993600269D3604269B8
S12317C0136042695360426993604269D360704728B1064A136843F0040313607047034AAC
S12317E01168034B0B401360704700BFA00000A0FBFF0F009AB1102807D0B0F5807F09D0CA
S1231800124A5368194351607047114A53681943516070470F4A53681943516070471028FF
S123182008D0B0F5807F0BD0084A536823EA010151607047064A536823EA01015160704747
S1231840044A536823EA010151607047A00000A0600000A0800000A0102808D0B0F5807FF0
S123186008D0074B5B680B4207D001207047054B5B68F8E7044B5B68F5E70020704700BF05
S1231880A00000A0600000A0800000A0102808D0B0F5807F0BD0094A536823EA0101516087
S12318A07047074A536823EA010151607047054A536823EA01015160704700BFA00000A06A
S12318C0600000A0800000A010280BD0B0F5807F0BD0094B5B6803EAD1020B4208D04AB953
S12318E000207047054B5B68F5E7054B5B68F2E70020704701207047A00000A0600000A043
S1231900800000A0102808D0B0F5807F0BD0094A536823EAD10151607047074A536823EAA6
S1231920D10151607047054A536823EAD1015160704700BFA00000A0600000A0800000A0F9
S12319400023092804D90133DBB20A38C0B2F8E71B01DBB218437047030903EB830300F0D3
S12319600F0000EB4300C0B27047002303607F234360FF238360704718B1054BFF225A6280
S12319807047034BCA225A6253225A62704700BF0028004082B000230193114BDB6813F0FC
S12319A0400F17D10E4B4FF0FF32DA600C4BDA6802F04002019B01330193019BB3F5803FB5
S12319C001D0002AF2D0064BDB6813F0400F04D0012000E0012002B070470020FBE700BF40
S12319E000280040024AD36823F08003D36070470028004010B504460F4BCA225A62532286
S1231A005A62FFF7C7FF18B90B4BFF225A6210BD094B9A6822F040029A609A6821680A43FD
S1231A209A60A2681A611A69616842EA01421A61FFF7D8FF0120E7E70028004082B0002374
S1231A400193114BCA225A6253225A62DA6822F0A002DA600C4BDA6802F02002019B01330C
S1231A600193019BB3F5003F01D0002AF2D0064BDB6813F0200F05D00120034BFF225A62A7
S1231A8002B070470020F8E70028004000B583B000230193214BCA225A6253225A62FFF798
S1231AA079FFE0B11D4B00221A6042F201125A609A6802F007029A60184BDA6802F0040280
S1231AC0019B01330193019BB3F5803F01D0002AF2D0124BDB6813F0040F06D100200F4BD7
S1231AE0FF225A6203B05DF804FB0C4B9A6800229A604FF6FF715961094919619A61DA6118
S1231B001A62DA62DA635A649A64DA601A64FFF795FF0028E3D00120E1E700BF00280040E3
S1231B20FF007F0010B504460D4BCA225A6253225A62FFF72FFF40B15CB1094A936843F040
S1231B4010039360FFF74EFF0120054BFF225A6210BD034A936823F010039360F2E700BF24
S1231B60002800400A4BCA225A6253225A6240B11A469B6843F020039360054BFF225A6201
S1231B807047034A936803F0DF039360F5E700BF0028004038B50D460346E8B9254A9268E4
S1231BA012F0400F01D10022CA70EBB12B786C78240244EA0344A8780443E87844EA0044AB
S1231BC01C4BCA225A6253225A62FFF7E3FEE0B9184BFF225A6238BD164A926812F0400F71
S1231BE0E3D10022CA70E0E72878FFF7A9FE04046878FFF7A5FE44EA0024A878FFF7A0FE46
S1231C000443E87844EA0044DAE704F07F3424F0FE44084D2C60FFF7E5FEAB6813F0200FEA
S1231C2001D00120D4E7FFF709FF0028D0D00120CEE700BF002800400023C37003704370B4
S1231C408370704770B50C460E4B1D68C5F30642C5F305412170C5F30626667005F07F05BF
S1231C60A57002F04003E37058B90846FFF774FE20703046FFF770FE60702846FFF76CFEF4
S1231C80A07070BD00280040014B986A5B6870470028004038B50D46024638B94B7813F02C
S1231CA0100F03D003F0EF030A334B70AAB1EB786C78240244EA0344A8780443287844EADF
S1231CC04034184BCA225A6253225A62FFF762FEA0B9144BFF225A6238BDE878FFF730FEEC
S1231CE004046878FFF72CFE44EA0024A878FFF727FE0443287844EA4034E2E724F07F4422
S1231D0024F0C004074D6C60FFF76CFEAB6813F0200F01D00120DCE7FFF790FE0028D8D019
S1231D200120D6E70028004001230370837043700023C370704770B50E4B5B68C3F30742CF
S1231D40CA70C3F304264E7003F03F058D70C3F342330B7060B90C461046FFF7FDFDE070CC
S1231D603046FFF7F9FD60702846FFF7F5FDA07070BD00BF0028004070B50D461646034656
S1231D8030BB254A926812F0400F01D10022F27033B333787078000240EA0340B3781843D6
S1231DA0F37840EA0340337B40EA0360B368184373681843184BCA225A6253225A62B5F57A
S1231DC0807F27D0144B1862134BFF225A6270BD114A926812F0400FDAD10022F270D7E735
S1231DE03078FFF7ADFD04047078FFF7A9FD44EA0024B078FFF7A4FD0443F07844EA0044D9
S1231E00307BFFF79DFD44EA0060B468204373681843CFE7D861D7E7002800400023C370D5
S1231E20037043708370836001220273436070472DE9F04105461446B1F5807F2BD0174BC2
S1231E401B6AC3F30742C3F305402070C3F30627677003F07F06A67002F04002E270C3F3EB
S1231E60056884F80C8003F08042A26003F08033636075B9FFF770FD20703846FFF76CFDCB
S1231E8060703046FFF768FDA0704046FFF764FD2073BDE8F081014BDB69D2E70028004056
S1231EA010B483B000230193164BCA225A6253225A6259B11A469B68184390600120114B01
S1231EC0FF225A6203B05DF8044B70470C460D4A936823EA000393600A4BDA68010A02EADE
S1231EE01022019B01330193019BB3F5803F01D0002AF1D0034BDB68194201D12046DEE7A0
S1231F000120DCE70028004010B4094BCA245C6253245C621143B0F5807F07D0044B99645D
S1231F20034BFF225A625DF8044B70475964F7E700280040B0F5807F04D0054B986CC0F395
S1231F400E007047024B586CC0F30E00704700BF00280040074BCA225A6253225A629968DC
S1231F6021F0070199609A6802439A60FF225A62704700BF00280040044BCA225A625322E3
S1231F805A625861FF225A62704700BF00280040014B586980B270470028004082B000235A
S1231FA00193164BCA225A6253225A6250B11A469B6843F4806393600120104BFF225A6285
S1231FC002B0704701460D4A936823F4806393600A4BDA6802F00402019B01330193019B7F
S1231FE0B3F5803F01D0002AF2D0044BDB6813F0040F01D10846E0E70120DEE700280040DC
S123200010B4094BCA225A6253225A629C6824F480249C609A68084302439A60FF225A62A6
S12320205DF8044B704700BF00280040024B986800F48020704700BF0028004010B4094B43
S1232040CA225A6253225A629C6824F4E0049C609A68084302439A60FF225A625DF8044B9A
S1232060704700BF0028004038B504460D46094BCA225A6253225A62FFF78CFC18B9054B28
S1232080FF225A6238BD2C43024B9C61FFF7AAFC0120F4E70028004010B504460D4BCA225E
S12320A05A6253225A62FFF775FC40B15CB1094A936843F080039360FFF794FC0120054BDC
S12320C0FF225A6210BD034A936823F080039360F2E700BF002800400A4BCA225A6253220F
S12320E05A6240B11A469B6843F400039360054BFF225A627047034A936823F40003936066
S1232100F5E700BF00280040074BCA225A6253225A62996821F4002199609A6802439A601C
S1232120FF225A62704700BF0028004010B4134BCA245C6253245C62DB6813F4803F0AD1F9
S12321400E4BDB6813F4803F10D1084310430B4BD86301200BE00023084CE46814F4803F73
S1232160EED0B3F5003FEBD00133F5E70020034BFF225A625DF8044B704700BF002800401E
S12321800A4B9B6823F4006323F0080359B1034343F40063054ACA2151625321516293605A
S12321A0FF23536270470343F4E700BF0028004070B50D4614461B4A136B526BC3F30641D6
S12321C0C3F305462E70C3F306266E7003F07F03AB7001F04003EB700023E370C2F304232B
S12321E0637002F03F03A370C2F342322270B8B92878FFF7B1FB28706878FFF7ADFB687065
S1232200A878FFF7A9FBA8706078FFF7A5FB6070A078FFF7A1FBA0702078FFF79DFB20703A
S123222070BD00BF00280040014B986B704700BF0028004029B9064A136C23EA40001064A7
S12322407047034A136C43EA40001064704700BF0028004021B1054A136C18431064704712
S1232260024A136C23EA00001064704700280040044B196C21F4C05119641A6C02431A642F
S1232280704700BF00280040044B196C21F4E06119641A6C02431A64704700BF002800408E
S12322A0044B196C21F4C04119641A6C02431A64704700BF0028004028B1064A136C43F0B1
S12322C0800313647047034A136C23F080031364704700BF0028004028B1064A136C23F4D3
S12322E0004313647047034A136C43F400431364704700BF0028004082B000230193054B95
S12323000193019B03EB80030193019B196002B0704700BF5028004082B000230193054B56
S12323200193019B03EB80030193019B186802B0704700BF50280040044B196C21F48031CE
S123234019641A6C02431A64704700BF00280040044B196C21F4003119641A6C02431A64F5
S1232360704700BF00280040044B196C21F4802119641A6C02431A64704700BF002800404D
S123238008B5164BCA225A6253225A62DB6813F0080F0BD1114BDB6813F0080F19D10F4B0C
S12323A09B6813F0100F0CD0002013E000230B4AD26812F0080FEDD0B3F5805FEAD0013308
S12323C0F5E70143054BD962FFF738FB10B1012000E00020014BFF225A6208BD00280040ED
S12323E0104BCA225A6253225A6269B19A6820F004010A439A601A6C00F0040010431864E4
S1232400084BFF225A627047064B9A6820F0040122EA01029A601A6C00F0040022EA0000DA
S12324201864EDE700280040074BDB6823F07F4323F47E0323F4404323F08003034201D098
S123244001207047002070470028004080B240F08003044AD06800F0800060EA0300D06009
S1232460704700BF00280040094A136C03F004039168014003EAD033D26802EA10100B43F0
S123248002D080B210B97047002070470120704700280040C0F30F1040F08003034AD06893
S12324A000F0800060EA0300D0607047002800400E4B1A6842F001021A60002199601A68E6
S12324C022F0A85222F410221A60094A5A60094AC3F8842002F18062C3F888201A6822F49B
S12324E080221A60D960C3F88C107047003802401030002400300020024B00221A701870C6
S1232500704700BF02380240034A136823F0F80343EAC0031360704700380240014B186097
S1232520704700BF00004742084B00221A701A70012802D0042804D07047044B01221A7061
S12325407047024B05221A70704700BF70380240014B1860704700BF800E474241EA821153
S12325605B08013B41EA03410143009841EA0061014B5960704700BF00380240014B186028
S1232580704700BF60004742090741EA8011024BC3F88410704700BF00380240014B1860BC
S12325A0704700BF68004742090641EA801141EA0271024BC3F88810704700BF00380240B7
S12325C0014B1860704700BF70004742014B1860704700BF4C004742034A936823F0EC630B
S12325E0084318439060704700380240034A936823F0784308431843906070470038024033
S1232600034A936823F0030303439360704700BF00380240024B986800F00C00704700BF6D
S123262000380240034A936823F0F00303439360704700BF00380240034A936823F4E05313
S123264003439360704700BF00380240034A936823F4604343EAC003936070470038024037
S123266010B4294B9B6803F00C03042B23D0082B24D013B1254B036001E0244B0360224C18
S1232680A368C3F303132249CB5CDAB20368D3404360A268C2F382228A5CD2B223FA02F242
S12326A08260A268C2F342328A5CD2B2D340C3605DF8044B7047154B0360E0E7124B5A685D
S12326C05B6803F03F0312F4800F12D00F4AB2FBF3F20D4B5B68C3F3881303FB02F30A4AE9
S12326E05268C2F3014201325200B3FBF2F30360C5E7064AB2FBF3F2034B5B68C3F38813B9
S123270003FB02F3EBE700BF0038024000127A001404002000F44073B3F5407F06D0094ABC
S1232720136FC0F30B0018431067704705498A6822F4F81220F0704323F4407313438B609E
S1232740EDE700BF00380240014B1860704700BF3C0E4742014B1860704700BF400E47424A
S1232760014B1860704700BF5C014742044AD2F88C3023F01F0301381843C2F88C0070479B
S123278000380240054AD2F88C3023F4F853013843EA0023C2F88C30704700BF0038024095
S12327A0044AD2F88C3023F440130343C2F88C30704700BF00380240044AD2F88C3023F440
S12327C040030343C2F88C30704700BF00380240044AD2F88C3023F440330343C2F88C30EC
S12327E0704700BF00380240014B1860704700BFE011474221B1054A136B1843106370470D
S1232800024A136B23EA0000106370470038024021B1054A536B184350637047024A536B8B
S123282023EA0000506370470038024021B1054A936B184390637047024A936B23EA000028
S1232840906370470038024021B1054A136C184310647047024A136C23EA00001064704727
S12328600038024021B1054A536C184350647047024A536C23EA0000506470470038024037
S123288021B1054A1369184310617047024A136923EA0000106170470038024021B1054A7C
S12328A05369184350617047024A536923EA0000506170470038024021B1054A9369184326
S12328C090617047024A936923EA0000906170470038024021B1054A136A184310627047B3
S12328E0024A136A23EA0000106270470038024021B1054A536A184350627047024A536AB0
S123290023EA0000506270470038024021B1054A136D184310657047024A136D23EA0000C2
S1232920106570470038024021B1054A536D184350657047024A536D23EA000050657047C0
S12329400038024021B1054A936D184390657047024A936D23EA0000906570470038024052
S123296021B1054A136E184310667047024A136E23EA0000106670470038024021B1054A87
S1232980536E184350667047024A536E23EA0000506670470038024021B1054A13781843A2
S12329A010707047024A137823EA0000107070470D3802404309012B0CD0022B0DD0094B88
S12329C05B6F00F01F0023FA00F010F0010F07D001207047034B1B68F3E7024B1B6FF0E7F5
S12329E0002070470038024000B583B0002301933120FFF7DFFF019B01330193019BB3F516
S1232A00A04F01D00028F3D03120FFF7D3FF00B1012003B05DF804FB024A536F43F08073E1
S1232A205367704700380240034BDB68184201D0012070470020704700380240014B1870EE
S1232A40704700BF0E380240C0B2014B18707047003C024028B1064A136843F480731360B8
S1232A607047034A136823F480731360704700BF003C024028B1064A136843F400731360A1
S1232A807047034A136823F400731360704700BF003C024028B1064A136843F48063136091
S1232AA07047034A136823F480631360704700BF003C0240024A136843F4006313607047A7
S1232AC0003C0240024A136843F4805313607047003C0240054B1B69002B00DB7047034B1C
S1232AE0034A5A6002F188325A60F7E7003C024023016745024A136943F0004313617047CF
S1232B00003C0240054B5B6913F0010F05D0034B034A9A6002F144329A607047003C02400A
S1232B203B2A1908024A536943F0010353617047003C0240034A137803F07F0303431370CD
S1232B40704700BF173C0240044B197801F0EF0119701A7802431A70704700BF143C0240B3
S1232B60044B197801F0F30119701A7802431A70704700BF143C0240024B5869C0F3471082
S1232B80704700BF003C0240014B1888704700BF163C0240014B1888704700BF1A3C02404D
S1232BA0014B1888704700BF163C0240014B1888704700BF1A3C0240044B1B78DBB2AA2BDD
S1232BC001D0012070470020704700BF153C0240024B187800F00C00704700BF143C02403E
S1232BE021B1054A1369184310617047024A136923EA000010617047003C0240034BDB68A5
S1232C00034201D00120704700207047003C0240014BD860704700BF003C0240124BDB6855
S1232C2013F4803F15D1104BDB6813F0100F12D10D4BDB6813F4807F0FD10B4BDB6813F024
S1232C40EF0F0CD1084BDB6813F0020F09D00820704701207047062070470220704707207E
S1232C6070470920704700BF003C024000B583B009238DF80730FFF7D1FF8DF807009DF8C5
S1232C800730DBB2012B04D1FFF7C8FF8DF80700F5E79DF8070003B05DF804FB70B5044634
S1232CA049B101290DD0022902D04FF4407603E04FF4007600E00026FFF7D8FF092803D0A6
S1232CC070BD4FF48076F7E70F4D2B6923F440732B612B691E432E612B6923F0F8032B61B4
S1232CE02869204340F0020028612B6943F480332B61FFF7BBFF2B6923F002032B612B699B
S1232D0023F0F8032B61DBE7003C024010B50446FFF7ACFF4CB1012C0BD0022C02D04FF4DD
S1232D20407303E04FF4007300E00023092803D010BD4FF48073F9E70B4C226922F44072AF
S1232D402261226913432361236943F004032361236943F480332361FFF788FF236923F027
S1232D6004032361E4E700BF003C024010B50446FFF77CFF4CB1012C0BD0022C02D04FF4F4
S1232D80407303E04FF4007300E00023092803D010BD4FF48073F9E70B4C226922F440724F
S1232DA02261226913432361236943F004032361236943F480332361FFF758FF236923F0F7
S1232DC004032361E4E700BF003C024010B50446FFF74CFF4CB1012C0BD0022C02D04FF4C4
S1232DE0407303E04FF4007300E00023092803D010BD4FF48073F9E70B4C226922F44072EF
S1232E002261226913432361236943F400432361236943F480332361FFF728FF236923F482
S1232E2000432361E4E700BF003C0240F8B5064614461D46FFF71AFF092800D0F8BD0B4FEA
S1232E403B6923F440733B613B6943F440733B613B6943F001033B61C6E90045FFF706FFD4
S1232E603B6923F001033B61E8E700BF003C024070B505460C46FFF7F9FE092800D070BD0E
S1232E800A4E336923F440733361336943F400733361336943F0010333612C60FFF7E6FE35
S1232EA0336923F001033361E9E700BF003C024070B505460C46FFF7D9FE092800D070BDFD
S1232EC00A4E336923F440733361336943F480733361336943F0010333612C80FFF7C6FE75
S1232EE0336923F001033361E9E700BF003C024070B505460C46FFF7B9FE092800D070BDDD
S1232F00094E336923F44073336133693361336943F0010333612C70FFF7A8FE336923F0DE
S1232F2001033361EBE700BF003C024038B504460D46FFF79BFE092800D038BD2DB1064BA8
S1232F40188820EA04001880F7E7034B1A88A0B210431880F1E700BF163C024038B50446BA
S1232F600D46FFF783FE092800D038BD2DB1064B188820EA04001880F7E7034B1A88A0B2F8
S1232F8010431880F1E700BF1A3C024038B504460D46FFF76BFE092800D038BD2DB1064B05
S1232FA01A88A0B210431880F7E7034B188820EA04001880F1E700BF163C024038B504465A
S1232FC00D46FFF753FE092800D038BD2DB1064B1A88A0B210431880F7E7034B188820EA79
S1232FE004001880F1E700BF1A3C024010B50446FFF73CFE092800D010BD014B1C70FBE73B
S1233000153C0240F8B504460E461546FFF72EFE092800D0F8BD064F3B7803F00F0343EA61
S1233020060141EA050242EA04003870F2E700BF143C024008B5044A137843F00203137000
S1233040FFF714FE08BD00BF143C024008B501214FF40000FFF714FC00214FF40000FFF7CC
S12330600FFC08BD30B42E4B1A6822F0031222F4F8521A601A6801680A431A605A6B22F013
S123308007025A635A6B41680A435A63436833BBC26812020469240445692D06204B996B32
S12330A02243846822432A430A439A638269DA631A6C22F47F5222F03F021A641A6CC16989
S12330C00A431A64456A5C6C04F040445C645A6C016A41EA05410A435A6430BC7047012BF6
S12330E00AD0022B0ED0032B12D0C26812010469240245692D03D1E7C2681202046924049E
S12331000025CBE7C26852010469E4020025C5E7C26852010469A4024569ED03BEE700BFA1
S123312000B00240002303604360C3608360036143618361C361036243627047024A1368D2
S123314043F001031360704700B00240024A136843F004031360704700B0024028B1064AD2
S1233160136843F0020313607047034A136823F002031360704700BF00B00240F0B40268A5
S1233180184BDA601A6922F47F5222F03F021A611A6941680A431A61D969134A0A40DA613E
S12331A0C768066945698469D969826842EA071242EA062242EA054242EA04620A43DA6180
S12331C01A6A02F07F421A62056A446A196AC26942EA052242EA04420A431A62826ADA62B7
S12331E0F0BC704700B00240C000FC000023036043608360C360036143618361C361036216
S1233200436283627047F0B40268194B5A619A6922F47F5222F03F029A619A6941680A430B
S12332209A61596A134A0A405A62C768066945698469596A826842EA071242EA062242EABE
S1233240054242EA04620A435A629A6A02F07F429A62056A446A996AC26942EA052242EA0B
S123326004420A439A62826A1A63F0BC704700BF00B00240C000FC00002303604360836076
S1233280C360036143618361C361036243628362704728B1054AD36943F02003D3617047AC
S12332A0024AD36923F02003D361704700B0024028B1064A536A43F0200353627047034A7A
S12332C0536A23F020035362704700BF00B0024069B10A4AD36C23F47F4323F00103D36406
S12332E0D36C43EA002040F00100D0647047034AD36C23F00103D364704700BF00B00240E0
S1233300014B9864704700BF00B0024021B1054A1368184310607047024A136823EA000007
S12333201060704700B00240034B5B68034201D0012070470020704700B00240014B986064
S1233340704700BF00B002400346074A526812EA102206D00120044A12681A4200D1002073
S123336070470020F7E700BF00B00240000A014B9860704700B0024040F0BF6040F4003039
S1233380014BD860704700BF00ED00E0C378FBB1154BDB68DB43C3F30222C2F10401C9B2AD
S12333A00F23134142788A40D2B281780B4013431B01DBB202780D490A4482F800330378F2
S12333C003F01F005B090122824041F823207047037803F01F015B0901228A4020330349DD
S12333E041F82320704700BF00ED00E000E100E021F0604121F07F010143014B99607047C6
S123340000ED00E021B1054B1A69104318617047024A136923EA00001061704700ED00E0E9
S1233420042805D0054A136823F0040313607047024A136843F004031360704710E000E07E
S123344008B501214FF48040FFF752FA00214FF48040FFF74DFA08BD014B1860704700BFE4
S123346000380140014B1860704700BF2000274230B401F0030292000F2404FA02F58908E7
S1233480084B023153F8214024EA050443F8214053F8214000FA02F2144343F8214030BCCA
S12334A0704700BF00380140014B1860704700BFDC002742014B1860704700BF00042742F3
S12334C0044B1B6A13F4807F01D0012070470020704700BF00380140014B01229A60704736
S12334E000300240014B1860186870470030024000238B420CD210B450F82340064A1460E8
S123350001338B42F8D3044B18685DF8044B7047014B1868704700BF00300240014B186831
S1233520704700BF00300240014B1871704700BF00300240014B1879704700BF003002401D
S123354008B5364B984215D0354B98421BD0354B984223D0344B98422BD0344B984233D028
S1233560334B98423BD0334B984241D0324B984249D008BD01211020FFF7BAF900211020FA
S1233580FFF7B6F9F5E701214FF40030FFF7A2F900214FF40030FFF79DF9EAE701214FF42A
S12335A08020FFF797F900214FF48020FFF792F9DFE701214FF40020FFF78CF900214FF432
S12335C00020FFF787F9D4E701214FF48010FFF781F900214FF48010FFF77CF9C9E7012100
S12335E02020FFF785F900212020FFF781F9C0E701214FF08040FFF76DF900214FF08040FE
S1233600FFF768F9B5E701214FF00040FFF762F900214FF00040FFF75DF9AAE700100140F3
S12336200044004000480040004C0040005000400014014000780040007C004030B585B07B
S123364004460D46038A9BB223F44053CA881343038283899BB223F4B05323F00C03898872
S123366028896A8901430A431343A381A38A9BB223F44073AA891343A3826846FEF7F0FF13
S1233680204B9C4205D003F580639C4201D0029B00E0039BA28912F4004F1FD103EB83037F
S12336A003EB830329688900B3FBF1F1164BA3FB012358090501642300FB1313A28912F485
S12336C0004F14D11B0132330F4AA2FB0323C3F343132B439BB2238105B030BD03EB830394
S12336E003EB830329684900B3FBF1F1DEE7DA003232054BA3FB0232C2F3421242EA050386
S1233700E8E700BF001001401F85EB514FF41653036000238380C38003810C2242818381F5
S1233720704770B4038A9BB223F470620D884E888C88CB8845EA060121430B431343038252
S123374070BC70470023038043808380C380704721B1838943F400538381704783899BB2A0
S123376023F400539BB283817047038B03F47F430383038B19430183704721B1838943F4CC
S12337800043838170478389C3F30E038381704721B1838A43F4006383827047838A9BB20A
S12337A023F400639BB283827047C1F30801818070478088C0F308007047038A9BB223F0A6
S12337C00F039BB20382038A19430182704721B1838943F002038381704783899BB223F0A1
S12337E002039BB28381704783899BB223F400639BB283818389194381817047038A9BB299
S123380023F020039BB20382038A19430182704721B1038A43F4804303827047038A9BB20A
S123382023F480439BB203827047838943F001038381704721B1838A43F00803838270474A
S1233840838A9BB223F008039BB283827047028BD2B20283038B43EA01230383704721B15F
S1233860838A43F0200383827047838A9BB223F020039BB28382704721B1838A43F0100367
S123388083827047838A9BB223F010039BB283827047838A9BB223F004039BB28382838A0C
S12338A019438182704721B1838A43F0020383827047838A9BB223F002039BB283827047A0
S12338C01AB1838A194381827047838A23EA01018182704710B4C1F3421401F01F0101231D
S12338E003FA01F19C4209D0022C09D014304AB10368194301605DF8044B70470C30F6E73C
S12339001030F4E7036823EA01010160F3E70388194201D00120704700207047C94389B226
S12339200180704710B4C1F3421201F01F040123A340012A0DD0022A0ED0828A1340090AE0
S1233940012202FA01F10288114043B159B9002006E082891340F2E7028A1340EFE700205F
S12339605DF8044B70470120FAE7090A01238B409BB2DB439BB20380704700BF054B0022C1
S12339801A60DA601F2159619A61DA611A625A62704700BF00000550F0B50F490B6823F4B5
S12339A0804323F001030B600A6822F47F6222F00202B0F800C0B0F802E08788C688058962
S12339C0448983894CEA0E003843304328432043034313430B60F0BD00000550002303805B
S12339E043808380C38003814381838170474388028843EA0243044A1362C388818843EAAC
S1233A0001435362704700BF0000055028B1064A136843F0040313607047034A136823F0FB
S1233A2004031360704700BF000005500378427843EA0223827843EA0243C27843EA02637E
S1233A40014A9361704700BF0000055028B1064A136843F0080313607047034A136823F071
S1233A6008031360704700BF0000055028B1064A136843F4804313607047034A136823F452
S1233A8080431360704700BF0000055028B1064A136843F0010313607047034A136823F041
S1233AA001031360704700BF00000550014B986A704700BF0000055021B1064BDA681043EF
S1233AC0D8607047034AD368C04380B21840D060704700BF00000550030B05D1074B9B68AA
S1233AE0184209D001207047022B02D0034B1B69F6E7024B5B68F3E70020704700000550F3
S1233B00014B5861704700BF00000550034B1B69034201D0012070470020704700000550E5
S1233B20014B5861704700BF000005508268436813440068181A824200D8801A7047F8B591
S1233B4004460D4617461E465521284608F09AF8854208D04FF0500383F31188BFF36F8FA5
S1233B60BFF34F8FFEE724220021204608F08AF8A561A760E6609DF818302377F8BD42B90B
S1233B804FF0500383F31188BFF36F8FBFF34F8FFEE72DE9F0410446884617464568836807
S1233BA05E1B964228BF1646AA19934208D24FF0500383F31188BFF36F8FBFF34F8FFEE735
S1233BC080693246284408F035F8B74211D9BA1BA3689A4208D94FF0500383F31188BFF31C
S1233BE06F8FBFF34F8FFEE708EB0601A06908F021F83D44A368AB4200D8ED1A656038469F
S1233C00BDE8F08130B583B00546019218466BB10C462B7F13F0010F0AD1904228BF104621
S1233C200190019A21462846FFF7A9FF03B030BD069B984201D20020F8E704220DEB0201D3
S1233C402846FFF79CFFECE72DE9F843934228BF13461C46002B3ED006468946904605682F
S1233C6083685F1BA74228BF2746BA4208D24FF0500383F31188BFF36F8FBFF34F8FFEE702
S1233C80EA19934208D24FF0500383F31188BFF36F8FBFF34F8FFEE781693A462944484643
S1233CA007F0C8FFBC4210D9A04508D24FF0500383F31188BFF36F8FBFF34F8FFEE7E21BD9
S1233CC0B16909EB070007F0B5FF2544B368AB4200D8ED1A35602046BDE8F8832DE9F0436C
S1233CE083B005460F4616461C46DDF82880B8F1000F08D12346324639462846FFF7A4FFBA
S1233D0003B0BDE8F083D0F80090424601A9FFF79BFF019BA4EB08049E4203D2C5F8009081
S1233D200026E7E71E46E5E7F0B583B00C46012A09D0A8B94FF0500383F31188BFF36F8F7B
S1233D40BFF34F8FFEE7042808D84FF0500383F31188BFF36F8FBFF34F8FFEE7012600E011
S1233D600026A04208D24FF0500383F31188BFF36F8FBFF34F8FFEE704B90124471C2530FD
S1233D8003F0E8FA054630B1009623463A4600F12401FFF7D4FE284603B0F0BD08B530B155
S1233DA0037F13F0020F0BD103F046FB08BD4FF0500383F31188BFF36F8FBFF34F8FFEE7CE
S1233DC02422002107F05EFFF0E768B130B583B00446056A03F020FC236973B1002403F08D
S1233DE03DFC204603B030BD4FF0500383F31188BFF36F8FBFF34F8FFEE763690BB100240E
S1233E00EDE7237F0093E368A268A1692046FFF796FE25620124E2E7024638B101B90121C4
S1233E2093688B420BD3D160012070474FF0500383F31188BFF36F8FBFF34F8FFEE70020E9
S1233E407047024648B18368006818445268801A0138834200D8C01A70474FF0500383F3F4
S1233E601188BFF36F8FBFF34F8FFEE708B510B1FFF75CFE08BD4FF0500383F31188BFF39A
S1233E806F8FBFF34F8FFEE72DE9F04186B00393A1B1044616460F46C8B1037F13F0010F3D
S1233EA01ED002F1040842451BD34FF0500383F31188BFF36F8FBFF34F8FFEE74FF0500344
S1233EC083F31188BFF36F8FBFF34F8FFEE74FF0500383F31188BFF36F8FBFF34F8FFEE7E4
S1233EE09046039B7BB304A802F024FA03F094FB2046FFF7A6FF0546804521D9002002F0C1
S1233F00ABFE63699BB902F049FB606103F0A6FB039B00221146104602F0CEFC0023636139
S1233F2003A904A802F02AFA0028DFD00AE04FF0500383F31188BFF36F8FBFF34F8FFEE788
S1233F4003F08CFB1DB92046FFF77BFF0546CDF800802B46324639462046FFF753FE054647
S1233F6018B9284606B0BDE8F0812046FFF7DEFDE3689842F5D301F075FE23693BB12069A9
S1233F8000231A46194602F0EBFC0023236101F025FFE6E7E1B12DE9F04182B00446154629
S1233FA01E468846E8B1037F13F0010F22D0171D2046FFF746FF034600972A464146204699
S1233FC0FFF720FE0546B8B9284602B0BDE8F0814FF0500383F31188BFF36F8FBFF34F8FF6
S1233FE0FEE74FF0500383F31188BFF36F8FBFF34F8FFEE71746DBE72046FFF797FDE368B8
S12340009842E1D3EFF311874FF0500383F31188BFF36F8FBFF34F8F236943B12069009614
S123402000231A46194602F01BFD0023236187F31188C9E721B32DE9F04383B004469046B6
S12340401F46894628B3037F13F0010F2AD00426002F3DD003F0E0FA2046FFF767FD054680
S1234060864224D3002002F0F7FD2369E3B14FF0500383F31188BFF36F8FBFF34F8FFEE791
S12340804FF0500383F31188BFF36F8FBFF34F8FFEE74FF0500383F31188BFF36F8FBFF353
S12340A04F8FFEE70026D3E702F078FA206103F0D5FAAE4210D33B4600221146104602F09D
S12340C0FBFB002323612046FFF730FD054603E02046FFF72BFD0546B54204D80025284653
S12340E003B0BDE8F08300962B46424649462046FFF7F4FD05460028F1D001F0B3FD6369E5
S12341003BB1606900231A46194602F029FC0023636101F063FEE2E748B130B583B0044690
S1234120037F13F0010F0BD1002003B030BD4FF0500383F31188BFF36F8FBFF34F8FFEE784
S1234140FFF7F4FC04280AD80028EED04FF0500383F31188BFF36F8FBFF34F8FFEE725682E
S1234160034604220DEB02012046FFF76DFD01982560DAE7B9B12DE9F04182B004461646A3
S12341801D468846C0B1037F13F0010F1DD004272046FFF7CBFC0346874218D30026304610
S12341A002B0BDE8F0814FF0500383F31188BFF36F8FBFF34F8FFEE74FF0500383F31188CC
S12341C0BFF36F8FBFF34F8FFEE70027E0E70097324641462046FFF781FD06460028DED036
S12341E0EFF311874FF0500383F31188BFF36F8FBFF34F8F636943B16069009500231A46BF
S1234200194602F02DFC0023636187F31188C6E728B10268436893420AD0002070474FF0C6
S1234220500383F31188BFF36F8FBFF34F8FFEE70120704768B110B50346027F12F0010F61
S123424010D004241846FFF7FCFDA0420CD8012010BD4FF0500383F31188BFF36F8FBFF34E
S12342604F8FFEE70024EDE70020F1E7E0B130B583B00446EFF311854FF0500282F311887D
S1234280BFF36F8FBFF34F8F0269B2B10069009100231A46194602F0E3FB00232361012098
S12342A085F3118803B030BD4FF0500383F31188BFF36F8FBFF34F8FFEE70020F0E7E0B1FB
S12342C030B583B00446EFF311854FF0500282F31188BFF36F8FBFF34F8F4269B2B140696A
S12342E0009100231A46194602F0BAFB00236361012085F3118803B030BD4FF0500383F3DF
S12343001188BFF36F8FBFF34F8FFEE70020F0E7006A704701627047007F00F00100704782
S12343200346406A18B11B6B1868C0F10500704710B5044603F070F9A26BE36B9A4204D0D4
S1234340002403F08BF9204610BD0124F9E710B5044603F061F9A36B23B9012403F07EF9B1
S1234360204610BD0024F9E770B504461546866B026C5AB903681BB100200136A66370BD02
S1234380806802F07DF90023A360F6E76DB9406807F050FC226C636813446360A268934263
S12343A019D3236863602846E7E7C06807F042FC226C5142E3689B1AE3602268934202D28F
S12343C0A3680B44E360022D01D00020D5E726B1013E0020D1E72846CFE70020CDE7034631
S12343E0026C6AB110B50846D9681144D9609C68A14201D31968D960D96807F01BFC10BDBD
S1234400704738B5054603F007F995F8454064B203E001F0F5FF013C64B2002C08DD6B6A8D
S123442033B105F1240001F003FF0028F3D0F0E7FF2385F8453003F011F903F0EDF895F84F
S1234440444064B203E001F0DBFF013C64B2002C08DD2B6933B105F1100001F0E9FE00282E
S1234460F3D0F0E7FF2385F8443003F0F7F838BD38B5E0B10D46044603F0CEF82168E26B0A
S1234480236C03FB0210A0600020A0636160013A02FB0313E360FF2384F8443084F8453001
S12344A0EDB9236963B903F0D9F8012038BD4FF0500383F31188BFF36F8FBFF34F8FFEE70A
S12344C004F1100001F0B4FE0028ECD0084B4FF080521A60BFF34F8FBFF36F8FE3E704F16F
S12344E0100000F0CDFD04F1240000F0C9FDDAE704ED00E038B51D46049C0B4649B92460C6
S1234500E063236401212046FFF7B2FF84F84C5038BD2260F4E740B94FF0500383F311889A
S1234520BFF36F8FBFF34F8FFEE7F0B583B00C461646074601FB00F0503002F00BFF0546CC
S123454038B10090334600F1500221463846FFF7D1FF284603B0F0BD40B94FF0500383F3A8
S12345601188BFF36F8FBFF34F8FFEE710B50C46884208D24FF0500383F31188BFF36F8F6D
S1234580BFF34F8FFEE702220021FFF7C4FF034600B18463184610BDF0B585B0019288B1F2
S12345A00E461D460446B1B1022D20D1E36B012B1DD04FF0500383F31188BFF36F8FBFF30A
S12345C04F8FFEE74FF0500383F31188BFF36F8FBFF34F8FFEE7036C002BE5D04FF050036D
S12345E083F31188BFF36F8FBFF34F8FFEE701F0DBFF074658B9019B002B44D04FF05003ED
S123460083F31188BFF36F8FBFF34F8FFEE7002739E02A4631462046FFF7A6FE626A6AB94C
S123462038B13C4B4FF080521A60BFF34F8FBFF36F8F03F013F8012005B0F0BD04F12400A1
S123464001F0F6FD0028F4D0324B4FF080521A60BFF34F8FBFF36F8FEBE702F0FFFF00205C
S1234660EAE702A801F080FE012719E0002384F8443021E0002384F8453023E02046FFF7A4
S1234680C0FE01F0ABFB02F0C7FFA26BE36B9A42BFD3022DBDD0019B002BDED0002FE0D030
S12346A002F0DCFF01F0DEFA02F0B6FF94F844305BB2B3F1FF3FD9D094F845305BB2B3F16F
S12346C0FF3FD7D002F0CAFF01A902A801F056FEC8B92046FFF72CFE0028CFD0019904F140
S12346E0100001F041FD2046FFF78BFE01F076FB0028C8D1074B4FF080521A60BFF34F8F02
S1234700BFF36F8FBFE72046FFF77BFE01F066FB002091E704ED00E048B110B500218160EF
S12347200160C1600B460A46FFF736FF10BD704710B5024600210120FFF7EDFE0446FFF733
S1234740EBFF204610BD38B538B10446856801F025FF85420AD0002038BD4FF0500383F358
S12347601188BFF36F8FBFF34F8FFEE7E368013BE3600BB10120EFE71A4619462046FFF7DF
S12347800BFF0120E8E72DE9F84390B1894690461F460446B1B1022F20D1E36B012B1DD04A
S12347A04FF0500383F31188BFF36F8FBFF34F8FFEE74FF0500383F31188BFF36F8FBFF32C
S12347C04F8FFEE7036C002BE5D04FF0500383F31188BFF36F8FBFF34F8FFEE703F036F8DC
S12347E0EFF311864FF0500383F31188BFF36F8FBFF34F8FA26BE36B9A4206D3022F04D046
S1234800002086F31188BDE8F88394F845506DB2A36B3A4649462046FFF7A6FDB5F1FF3F02
S123482005D06B1C5BB284F845300120E9E7636A0BB90120E5E704F1240001F0F9FC30B1CB
S1234840B8F1000F05D00120C8F80000D9E70120D7E70120D5E768B170B50E460446036C1F
S12348608BB14FF0500383F31188BFF36F8FBFF34F8FFEE74FF0500383F31188BFF36F8FE1
S1234880BFF34F8FFEE70368EBB102F0DFFFEFF311854FF0500383F31188BFF36F8FBFF34D
S12348A04F8FA26BE36B934226D994F845305BB20132A263B3F1FF3F11D001335BB284F821
S12348C04530012019E08368002BDED04FF0500383F31188BFF36F8FBFF34F8FFEE7636AEE
S12348E00BB9012009E004F1240001F0A1FC38B146B10120306000E0002085F3118870BD70
S12349000120FAE70120F8E7F0B585B0019290B10E460446C1B101F047FE074600BB019BF9
S1234920002B5CD04FF0500383F31188BFF36F8FBFF34F8FFEE74FF0500383F31188BFF303
S12349406F8FBFF34F8FFEE7036C002BE3D04FF0500383F31188BFF36F8FBFF34F8FFEE7CD
S123496000273CE031462046FFF739FD013DA563236923B902F072FE012005B0F0BD04F15F
S1234980100001F055FC0028F4D0354B4FF080521A60BFF34F8FBFF36F8FEBE702F05EFE6A
S12349A00020EAE702A801F0DFFC012721E0002384F8443029E0002384F845302BE02046C2
S12349C0FFF71FFD01F00AFA09E02046FFF719FD01F004FA2046FFF7BAFC00283DD102F048
S12349E01BFEA56B002DBDD1019B002BD6D0002FD8D002F033FE01F035F902F00DFE94F8C0
S1234A0044305BB2B3F1FF3FD1D094F845305BB2B3F1FF3FCFD002F021FE01A902A801F0A9
S1234A20ADFC0028D1D12046FFF791FC0028C6D0019904F1240001F097FB2046FFF7E1FCE9
S1234A4001F0CCF90028CAD1054B4FF080521A60BFF34F8FBFF36F8FC1E700208DE700BFC3
S1234A6004ED00E070B584B0019158B10446036C8BB14FF0500383F31188BFF36F8FBFF375
S1234A804F8FFEE74FF0500383F31188BFF36F8FBFF34F8FFEE701F087FD064650B9019B23
S1234AA05BB14FF0500383F31188BFF36F8FBFF34F8FFEE700252E4653E0054651E0013B9C
S1234AC0A36323683BB123694BB902F0C7FD0125284604B070BD01F09DFEA060F3E704F13F
S1234AE0100001F0A5FB0028EFD0464B4FF080521A60BFF34F8FBFF36F8FE6E745B14FF0CC
S1234B00500383F31188BFF36F8FBFF34F8FFEE702F0A4FDDCE702A801F026FC01262AE0C6
S1234B20002384F8443032E0002384F8453034E002F072FDA06801F047FD054602F08EFDBE
S1234B403BE02046FFF75DFC01F048F909E02046FFF757FC01F042F92046FFF7F8FB002814
S1234B6040D102F059FDA36B002BA8D1019B002BC4D0002ECFD002F071FD01F073F802F050
S1234B804BFD94F844305BB2B3F1FF3FC8D094F845305BB2B3F1FF3FC6D002F05FFD01A9C4
S1234BA002A801F0EBFB0028D1D12046FFF7CFFB0028C6D02368002BBAD0019904F12400CF
S1234BC001F0D2FA2046FFF71CFC01F007F90028C7D10C4B4FF080521A60BFF34F8FBFF3CB
S1234BE06F8FBEE70DB9002572E702F015FD2046FFF796FB0146A06801F09EFD02F02EFDE1
S1234C00F1E700BF04ED00E088B170B50D460446866801F0C3FC864212D029462046FFF71A
S1234C2021FF024680B1E3680133E3600CE04FF0500383F31188BFF36F8FBFF34F8FFEE763
S1234C40E3680133E3600122104670BD70B584B0019290B10D460446C1B101F0A5FC0646CE
S1234C6000BB019B002B5CD04FF0500383F31188BFF36F8FBFF34F8FFEE74FF0500383F3B4
S1234C801188BFF36F8FBFF34F8FFEE7036C002BE3D04FF0500383F31188BFF36F8FBFF302
S1234CA04F8FFEE700263CE0E66829462046FFF796FBE660636A23B902F0D0FC012004B0BF
S1234CC070BD04F1240001F0B3FA0028F4D0354B4FF080521A60BFF34F8FBFF36F8FEBE7E3
S1234CE002F0BCFC0020EAE702A801F03DFB012621E0002384F8443029E0002384F84530EA
S1234D002BE02046FFF77DFB01F068F809E02046FFF777FB01F062F82046FFF718FB0028C6
S1234D203DD102F079FCA36B002BBDD1019B002BD6D0002ED8D002F091FC00F093FF02F0FD
S1234D406BFC94F844305BB2B3F1FF3FD1D094F845305BB2B3F1FF3FCFD002F07FFC01A9B2
S1234D6002A801F00BFB0028D1D12046FFF7EFFA0028C6D0019904F1240001F0F5F92046C9
S1234D80FFF73FFB01F02AF80028CAD1054B4FF080521A60BFF34F8FBFF36F8FC1E7002026
S1234DA08DE700BF04ED00E02DE9F843C8B1894617460446F1B102F049FDEFF311864FF019
S1234DC0500383F31188BFF36F8FBFF34F8FD4F83880B8F1000F19D1002086F31188BDE830
S1234DE0F8834FF0500383F31188BFF36F8FBFF34F8FFEE7036C002BDDD04FF0500383F31F
S1234E001188BFF36F8FBFF34F8FFEE794F844506DB249462046FFF7E2FA08F1FF33A36399
S1234E20B5F1FF3F05D06B1C5BB284F844300120D3E723690BB90120CFE704F1100001F039
S1234E40F7F918B127B101203860C6E70120C4E70120C2E7F8B568B10D46044699B1236C85
S1234E60EBB94FF0500383F31188BFF36F8FBFF34F8FFEE74FF0500383F31188BFF36F8F73
S1234E80BFF34F8FFEE7036C002BE8D04FF0500383F31188BFF36F8FBFF34F8FFEE702F08F
S1234EA0D5FCEFF311864FF0500383F31188BFF36F8FBFF34F8FA36B1BB9002086F31188AF
S1234EC0F8BDE76829462046FFF789FAE7600120F4E740B110B5044602F09EFBA46B02F0AD
S1234EE0BDFB204610BD4FF0500383F31188BFF36F8FBFF34F8FFEE738B548B1054602F0DA
S1234F008BFBEC6BAB6BE41A02F0A8FB204638BD4FF0500383F31188BFF36F8FBFF34F8FCB
S1234F20FEE708B1806B70474FF0500383F31188BFF36F8FBFF34F8FFEE7806C70478164DF
S1234F40704790F84C00704718B1836B53B9012070474FF0500383F31188BFF36F8FBFF36D
S1234F604F8FFEE70020704728B1826BC36B9A420AD0002070474FF0500383F31188BFF3BF
S1234F806F8FBFF34F8FFEE701207047002300E00133072B0BD8064A52F83320002AF7D197
S1234FA0034A42F8331002EBC303586070477047C4320120002300E00133072B09D8064A99
S1234FC002EBC30252688242F6D1034A52F8330070470020704700BFC4320120002300E0A5
S1234FE00133072B0DD8074A02EBC30252688242F6D1044A002142F8331002EBC3035960C2
S123500070477047C432012038B110B50446FFF7E5FF204602F010FA10BD4FF0500383F3FE
S12350201188BFF36F8FBFF34F8FFEE770B504460D46164602F0F0FA94F844305BB2B3F103
S1235040FF3F0DD094F845305BB2B3F1FF3F0BD002F004FBA36B5BB12046FFF7D2F970BD07
S1235060002384F84430EDE7002384F84530EFE73246294604F1240001F0BCF8ECE700BF24
S123508000F1080343604FF0FF328260C360036100230360704700230361704743684B60C3
S12350A09A688A60516099600861036801330360704730B40D68B5F1FF3F11D000F108031A
S12350C01C465B681A68AA42FAD963684B6099608C606160086103680133036030BC70473C
S12350E00469F2E70369416882688A60416851605A68824206D0002202611A68013A1A600B
S12351001868704782685A60F5E700001AB9084206D11046704731EA000303D0002070470B
S1235120012070470120704710B51C2002F012F9044620B1002340F8043BFFF7A1FF20460C
S123514010BD2DE9F047DDF820A078B10D4617469846064611F07F4911D04FF0500383F3E7
S12351601188BFF36F8FBFF34F8FFEE74FF0500383F31188BFF36F8FBFF34F8FFEE741B9AD
S12351804FF0500383F31188BFF36F8FBFF34F8FFEE701F009FA58B9BAF1000F08D04FF06F
S12351A0500383F31188BFF36F8FBFF34F8FFEE700F058FD3468424629462046FFF7A6FF8B
S12351C0E0B117B124EA0503336000F007FEB9F1000F10D038B91D4B4FF080521A60BFF3A5
S12351E04F8FBFF36F8F01F005FB044610F0007F1BD024F07F442046BDE8F087BAF1000F65
S123520011D06FB94946B8F1000F01D041F0806152462943301D00F0C1FF4C46D146D4E7F2
S12352204FF08071EFE7D146CFE702F0F5F93468424629462046FFF769FF18B117B124EAC1
S12352400505356002F00AFAD3E700BF04ED00E070B170B50C46064611F07F4F11D04FF098
S1235260500383F31188BFF36F8FBFF34F8FFEE74FF0500383F31188BFF36F8FBFF34F8FC2
S1235280FEE702F0C9F9356825EA0404346002F0E5F9284670BDEFF311834FF0500282F342
S12352A01188BFF36F8FBFF34F8F006883F311887047F8B568B10D46044611F07F4611D0D9
S12352C04FF0500383F31188BFF36F8FBFF34F8FFEE74FF0500383F31188BFF36F8FBFF301
S12352E04F8FFEE700F10C0700F0BCFC206923682B4323600AE0216833EA010105D111E0DD
S1235300216841F0007100F0D5FF2846B8420ED04568026822F07F4312F0806FEBD1216833
S12353201942F2D012F0807FEAD01E43E8E7236823EA0603236000F051FD2068F8BD2DE9AC
S1235340F84312F07F4808D04FF0500383F31188BFF36F8FBFF34F8FFEE706460C461546AE
S12353601F4642B94FF0500383F31188BFF36F8FBFF34F8FFEE701F017F948B947B14FF0CA
S1235380500383F31188BFF36F8FBFF34F8FFEE700F068FCD6F8009021463046FFF789FF75
S12353A049EA040435EA040318D0EFB9346800F015FD87B138B9174B4FF080521A60BFF392
S12353C04F8FBFF36F8F01F015FA044610F0007F12D024F07F442046BDE8F883336823EA8B
S12353E0050333604746E2E73A4645F0A061301D00F0D4FE4446DAE702F00EF9346835EAF4
S1235400040302D002F02AF9E3E724EA05053560F8E700BF04ED00E010B5044600F022FC97
S1235420636893B1206904F10C03984204D04FF0007100F03FFFF3E74FF0500383F31188C5
S1235440BFF36F8FBFF34F8FFEE7204601F0F4FF00F0C4FC10BD08B5FFF72BFF08BD08B5FD
S1235460FFF7F6FE08BD08B180697047002070478161704728B141690C4A91420AD000200A
S123548070474FF0500383F31188BFF36F8FBFF34F8FFEE7836A1432934202D01BB10020C5
S12354A07047002070470120704700BFA404002000230278A52A02D101300133F9E7C3F3C1
S12354C08F007047074B9B6A1B6823B9054B4FF0FF32DA627047034B9A6AD268D268526899
S12354E0DA627047A404002010B50446006B01F0A3FF204601F0A0FF10BD2DE9F04780460A
S12355000D4617469946089EDDF824A00A9C9200A521206B06F0B6FB236B07F18042013A06
S123552003EB820727F0070785B30022092A07D8A95CA31883F83410AB5C0BB10132F5E70E
S1235540002384F83D30042E00D90426E662A6640025E564201DFFF79EFD04F11800FFF775
S12355609AFD2461C6F10506A6616462256584F854504A464146384602F012F82060BAF116
S1235580000F01D0CAF80040BDE8F087002384F83430D8E770B50024042C08D804EB840279
S12355A0930010481844FFF76BFD0134F4E70E4C04F194063046FFF763FD04F1A80528466D
S12355C0FFF75EFD04F11400FFF75AFD04F1BC00FFF756FD2046FFF753FDA662C4F8D05096
S12355E070BD00BFD4040020A404002038B5044602F012F8264BD3F8D4200132C3F8D420B6
S1235600D3F8D83073B1224BD3F8DC308BB9204BD3F8D830DA6AE36A9A420AD81C4BC3F858
S1235620D84006E01A4BC3F8D840D3F8D430012B2BD0174DD5F8E0300133C5F8E030236471
S1235640E36A01229A40D5F8E4100A43C5F8E42005F1300003EB8303211D00EB8300FFF7F1
S12356601DFD01F0FBFFD5F8DC306BB1D5F8D830DA6AE36A9A4207D2064B4FF080521A6035
S1235680BFF34F8FBFF36F8F38BDFFF783FFD0E7A404002004ED00E038B50F4BD3F8E830DF
S12356A0C3B101F0B9FF0C4CD4F8C830DD68281DFFF718FDD4F8D430013BC4F8D430D4F880
S12356C0E830013BC4F8E83001F0C8FF2846FFF70BFFE2E738BD00BFA404002008B5FFF780
S12356E0DBFF064B1B6B012BF9D9054B4FF080521A60BFF34F8FBFF36F8FF0E7A40400203D
S123570004ED00E070B504460D461F4BD3F8EC60D3F8D8000430FFF7E5FC60B91A4BD3F87A
S1235720D820D16A012202FA01F1D3F8E42022EA0102C3F8E420B4F1FF3F0FD03444124BED
S1235740D3F8D8305C60A64211D90F4BD3F8D000D3F8D8100431FFF7ACFC70BD002DEDD052
S12357600948D0F8D8100431FFF798FCF5E7064DA86AD5F8D8100431FFF79BFCEB6AA34273
S1235780EBD9EC62E9E700BFA40400202DE9F04385B00746884614461E46900001F0DAFDED
S12357A0F0B18146582001F0D5FD0546A0B1C0F83090D5B10023039302950D9B01930C9B75
S12357C000933346224641463846FFF796FE2846FFF70CFF012005E0484601F02DFEE8E7D4
S12357E04FF0FF3005B0BDE8F0834FF0FF30F9E770B5044601F010FF002C3DD0261D3046BB
S1235800FFF770FC88B9E26A02EB82012D4B03EB81031B6B4BB9012303FA02F22949D1F861
S1235820E43023EA0203C1F8E430A36A1BB104F11800FFF757FC234BD3F8E0200132C3F81B
S1235840E020D3F8D830A3421AD01E4AD2F8D430013BC2F8D4302046FFF746FEFFF732FEAC
S123586001F0FCFE174BD3F8DC3023B1154BD3F8D830A34210D070BD124BD3F8D840BDE723
S1235880104D314605F1BC00FFF708FCD5F8E8300133C5F8E830E3E70A4BD3F8F03043B198
S12358A04FF0500383F31188BFF36F8FBFF34F8FFEE7054B4FF080521A60BFF34F8FBFF301
S12358C06F8FD8E7A404002004ED00E0F8B5D8B105461D4BD3F8D83083422DD001F09CFE65
S12358E06C69194B9F6AD3F8D06001F0B7FEBC4224D0B44224D0144B9C420ED0134B9C428E
S123590020D0BCB1012018E04FF0500383F31188BFF36F8FBFF34F8FFEE7AB6A0BB1022054
S12359200BE095F85430DBB2012B01D0032004E0022002E0042000E00020F8BD0220FCE7F4
S12359400220FAE70420F8E7A40400206005002010B5044601F060FE24B1E46A01F07EFE02
S1235960204610BD014BD3F8D840F6E7A404002010B5044601F06AFFEFF311834FF05002AC
S123598082F31188BFF36F8FBFF34F8F1CB1E06A83F3118810BD024AD2F8D840F7E700BFF7
S12359A0A4040020F8B5042908D94FF0500383F31188BFF36F8FBFF34F8FFEE704460D46FD
S12359C001F02AFE84B1A36C9D4232D010D92F4AD2F8D820A2422FD02C4AD2F8D820D26A0A
S12359E0AA422BD9002609E0284BD3F8D840EAE7264AD2F8D820A24222D00026E76ABB4201
S1235A0020D0A564A369002B02DBC5F10505A561616907EB87021E4B03EB8203994213D0D0
S1235A203EB11C4B4FF080521A60BFF34F8FBFF36F8F01F013FEF8BD0026DFE70126DDE7B3
S1235A400126DBE7E562DCE7251D2846FFF74AFB48B9012303FA07F70C4AD2F8E43023EA03
S1235A600703C2F8E430E06A01228240074BD3F8E4100A43C3F8E420303300EB80002946C1
S1235A8003EB8000FFF70AFBCAE700BFA4040020D404002004ED00E078B170B504461E4B97
S1235AA0D3F8D830834207D001F0B6FD2046FFF7E1FC58B901F0D2FD70BD4FF0500383F390
S1235AC01188BFF36F8FBFF34F8FFEE7261D3046FFF708FBE36A01229A400F4DD5F8E410EB
S1235AE00A43C5F8E42005F1300003EB8303314600EB8300FFF7D2FAE26AD5F8D830DB6AED
S1235B009A42D7D3054B4FF080521A60BFF34F8FBFF36F8FCEE700BFA404002004ED00E0D3
S1235B20F8B5B0B3044601F091FEEFF311874FF0500383F31188BFF36F8FBFF34F8F2046C6
S1235B40FFF798FC054600B31B4BD3F8F0305BBBE26A194BD3F8D830DB6A9A4222D2002595
S1235B60261D3046FFF7BEFAE06A01228240124BD3F8E4100A43C3F8E420303300EB800095
S1235B80314603EB8000FFF789FA87F311882846F8BD4FF0500383F31188BFF36F8FBFF36A
S1235BA04F8FFEE70125DBE704F118010348FFF775FA0025E9E700BFA4040020B804002020
S1235BC000B583B01A4B019300230093822219491948FFF7DBFD0346012807D0012B09D0A7
S1235BE0B3F1FF3F1BD003B05DF804FB01F0E4F80346F3E74FF0500383F31188BFF36F8F8C
S1235C00BFF34F8F0D4B4FF0FF32DA620122C3F8DC200022C3F8EC2001F094FDE3E74FF09E
S1235C20500383F31188BFF36F8FBFF34F8FFEE79805002050DB0408DD560408A4040020DE
S1235C4008B54FF0500383F31188BFF36F8FBFF34F8F034B0022C3F8DC2001F0CBFC08BDFE
S1235C60A4040020034AD2F8F0300133C2F8F030704700BFA4040020014BD3F8EC0070471B
S1235C80A404002008B501F0E1FD024BD3F8EC0008BD00BFA4040020014BD3F8D4007047BA
S1235CA0A4040020034618B133B103F134007047064BD3F8D830F7E74FF0500383F31188A0
S1235CC0BFF36F8FBFF34F8FFEE700BFA40400202DE9F041404BD3F8F030002B72D13E4B60
S1235CE0D3F8EC500135C3F8EC50CDB99B6A1B6843B14FF0500383F31188BFF36F8FBFF367
S1235D004F8FFEE7344B9A6AD3F8D0109962C3F8D020D3F8F8200132C3F8F820FFF7D2FB3C
S1235D202D4BDB6AAB4243D900242B4AD2F8D830DB6A03EB830399000A44136B012B00D90B
S1235D400124254BD3F8FC30002B42D0012440E00124214B9B6A1B6863B31F4B9B6ADB6850
S1235D60DE6873689D422AD306F104084046FFF7B9F9B36A1BB106F11800FFF7B3F9F36AFA
S1235D8001229A40144FD7F8E4100A43C7F8E42007F1300003EB83039A0041461044FFF7C5
S1235DA07DF9F26AD7F8D830DB6A9A42D0D2D0E70024CEE7084B4FF0FF32DA62B5E7064AF8
S1235DC0D362B2E7044AD2F800310133C2F8003100242046BDE8F081A4040020394BD3F8D2
S1235DE0F03043B94FF0500383F31188BFF36F8FBFF34F8FFEE770B501F00EFC314BD3F856
S1235E00F020013AC3F8F020D3F8F030002B54D12C4BD3F8D4300BB900244FE00024294B38
S1235E205B692BB3274D2B6ADC6804F11800FFF759F9261D3046FFF755F9E36A01229A40D3
S1235E40D5F8E4100A43C5F8E42005F1300003EB8303314600EB8300FFF720F9E26AD5F8C8
S1235E60D830DB6A9A42DAD30122C5F8FC20D6E70CB1FFF727FB134BD3F800417CB9114BBF
S1235E80D3F8FC40D4B1104B4FF080521A60BFF34F8FBFF36F8F012410E0013C08D0FFF72C
S1235EA017FF0028F9D0074B0122C3F8FC20F4E7044B0022C3F80021E1E7002401F0CEFBBD
S1235EC0204670BDA404002004ED00E038B558B10C46054689B94FF0500383F31188BFF36A
S1235EE06F8FBFF34F8FFEE74FF0500383F31188BFF36F8FBFF34F8FFEE71B4BD3F8F03014
S1235F0043B14FF0500383F31188BFF36F8FBFF34F8FFEE7FFF7A6FE134BD3F8EC002A6882
S1235F201444824209D9A24201D82C600EE0A04201D32C600AE02C6004E0A24201D8A042ED
S1235F4010D22C600021201AFFF7DCFBFFF746FF38B9064B4FF080521A60BFF34F8FBFF35D
S1235F606F8F38BD2C60F1E7A404002004ED00E010B5B0B104460F4BD3F8F03043B14FF045
S1235F80500383F31188BFF36F8FBFF34F8FFEE7FFF768FE00212046FFF7B4FBFFF71EFFDB
S1235FA038B9054B4FF080521A60BFF34F8FBFF36F8F10BDA404002004ED00E00C4BD3F849
S1235FC0F03043B14FF0500383F31188BFF36F8FBFF34F8FFEE710B50446FFF743FE044A4F
S1235FE0D2F800312344C2F80031FFF7F7FE10BDA4040020224BD3F8F03023B1204B012216
S1236000C3F8FC2070471E4A0023C2F8FC30D2F8E430B3FA83F3DBB2C3F11F0303EB8300A8
S123602081000A44126B42B94FF0500383F31188BFF36F8FBFF34F8FFEE710B4104A03EB43
S1236040830081001144486B40684863303203EB8304A1000C4608310A4490420BD008498E
S123606003EB83039A000A44536BDB68C1F8D8305DF8044B70474068014A22445063EEE7C2
S1236080A404002038B5044601F0C6FA8CB3251D2846FFF727F888B9E26A02EB8201304BD0
S12360A003EB81031B6B4BB9012303FA02F22C49D1F8E43023EA0203C1F8E430A36A1BB1C1
S12360C004F11800FFF70EF829462548FEF7E6FF94F85430DBB2012B0FD001F0BFFA204B40
S12360E0D3F8DC306BB91E4BD3F8D830A3420FD038BD1B4BD3F8D840C9E7002384F8543090
S1236100EBE701F089FAFFF7DDF901F0A7FAEAE7134BD3F8DC30ABB1114BD3F8F03043B13A
S12361204FF0500383F31188BFF36F8FBFF34F8FFEE70C4B4FF080521A60BFF34F8FBFF371
S12361406F8FD5E7064B1A68D3F8D4309A4204D1034B0022C3F8D820CAE7FFF74BFFC7E76C
S1236160A404002004ED00E060B110B50C460A4BD3F8D8101831FEF79CFF01212046FFF7FB
S1236180C1FA10BD4FF0500383F31188BFF36F8FBFF34F8FFEE700BFA404002038B570B118
S12361A00B461446124AD2F8F0208AB94FF0500383F31188BFF36F8FBFF34F8FFEE74FF0B2
S12361C0500383F31188BFF36F8FBFF34F8FFEE7074AD2F8D81043F000438B61D2F8D8101D
S12361E01831FEF75BFF01212046FFF78BFA38BDA404002038B578B10C4615460B4BD3F85F
S1236200D8101831FEF74AFF0DB14FF0FF3429462046FFF777FA38BD4FF0500383F3118809
S1236220BFF36F8FBFF34F8FFEE700BFA404002038B5C368DC684CB304F118052846FEF7DE
S123624051FF1A4BD3F8F0304BBB251D2846FEF749FFE06A01228240144BD3F8E4100A430D
S1236260C3F8E420303300EB8000294603EB8000FEF714FFE26A0D4BD3F8D830DB6A9A4210
S123628012D90120094BC3F8FC000EE04FF0500383F31188BFF36F8FBFF34F8FFEE72946C0
S12362A00348FEF7FBFEE5E7002038BDA4040020B80400201E4AD2F8F02042B94FF050034D
S12362C083F31188BFF36F8FBFF34F8FFEE770B541F000430360C5680DB3FEF703FF2E1D5B
S12362E03046FEF7FFFEEB6A01229A40104CD4F8E4100A43C4F8E42004F1300003EB83031E
S1236300314600EB8300FEF7C9FEEA6AD4F8D830DB6A9A4202D90122C4F8FC2070BD4FF04D
S1236320500383F31188BFF36F8FBFF34F8FFEE7A404002068B110B5044601F06DF9094B37
S1236340D3F8F8202260D3F8EC30636001F086F910BD4FF0500383F31188BFF36F8FBFF3EA
S12363604F8FFEE7A4040020034BD3F8F8200260D3F8EC3043607047A4040020F8B5D8B1BC
S12363800C46054609B301F047F91C4BD3F8EC106B68C81A2268B2F1FF3F27D02F68174E2E
S12363A0D6F8F860B74201D08B4224D9824215D80023236001241AE04FF0500383F3118808
S12363C0BFF36F8FBFF34F8FFEE74FF0500383F31188BFF36F8FBFF34F8FFEE75B1A134402
S12363E023602846FFF7C0FF002400E0002401F035F92046F8BD0124F9E700BFA404002005
S1236400024B0122C3F8FC20704700BFA404002008B1406C70470020704700B141647047F3
S123642070B50C4616460546D8B1256005F134026260EA6A22612A6BE2612A6CA260AA6CE1
S123644062610022A261052B1BD0134AD2F8D820AA420AD02373032B0AD0BEB90023238471
S123646070BD0D4AD2F8D850DFE700232373F4E7FFF7F8FBAB6A0BB102232373FFF7AEFC33
S1236480EBE72846FFF722FA2073E6E7286BFFF70FF82084E4E700BFA40400202DE9F04773
S12364A00C683CB307460D4690464B685B684B6001F108094B4504D06B68D3F80CA0002409
S12364C012E05B684B60F7E75B686B606B68DE6804EBC4014346012207EB81013046FFF793
S12364E09FFF0134B24505D06B685B686B609945ECD1E9E72046BDE8F087F8B506460C4660
S12365001746FFF7AFFB234BD3F8D430A3423CD805250024013D04EBC40005EB850101226C
S12365201D4B03EB810106EB8000FFF7B7FF0444002DEFD104EBC400164DA96A022206EBEF
S12365408000FFF7ABFF044404EBC400D5F8D010022206EB8000FFF7A1FF044404EBC40049
S1236560042205F1BC0106EB8000FFF797FF044404EBC4000322294606EB8000FFF78EFFBE
S123658004441FB100233B6000E00024FFF726FC2046F8BDA4040020D4040020014BD3F813
S12365A0D8007047A4040020064BD3F8DC303BB1044BD3F8F0300BB10020704702207047C6
S12365C001207047A4040020002851D038B50446C36A294AD2F8D820D26A93423FD2826928
S12365E0002A06DB244AD2F8D820D26AC2F105028261616903EB8303204A02EB830399428D
S123660006D01D4BD3F8D830DB6AE362012038BD251D2846FEF766FD50B9E26A012303FA47
S123662002F21549D1F8E43023EA0203C1F8E4301148D0F8D830DB6AE362012404FA03F27D
S1236640D0F8E4100A43C0F8E420303003EB8303294600EB8300FEF721FD2046D7E7826C9B
S1236660054BD3F8D830DB6A9A4203D30020CEE7002070470120CAE7A4040020D4040020BE
S1236680002852D038B504462A4BD3F8D830834208D04FF0500383F31188BFF36F8FBFF38D
S12366A04F8FFEE7C36C43B94FF0500383F31188BFF36F8FBFF34F8FFEE7013BC364C16A94
S12366C0826C914233D00BB1002038BD051D2846FEF708FD88B9E26A02EB8201154B03EB4C
S12366E081031B6B4BB9012303FA02F21149D1F8E43023EA0203C1F8E430A36CE362C3F155
S12367000502A261012404FA03F10A4AD2F8E4000143C2F8E410303203EB8303294602EB2E
S12367208300FEF7BBFC2046CFE7002070470020CBE700BFA4040020002856D038B50A464F
S12367400446C16C41B94FF0500383F31188BFF36F8FBFF34F8FFEE7836C934200D213460F
S1236760E26A9A4201D0012900D038BD1F49D1F8D810A14230D0E362A169002902DBC3F128
S12367800503A361616902EB8202194B03EB82029142EAD1251D2846FEF7A4FC50B9E26AB0
S12367A0012303FA02F21149D1F8E43023EA0203C1F8E430E06A012282400C4BD3F8E41065
S12367C00A43C3F8E420303300EB8000294603EB8000FEF763FCC8E74FF0500383F311885A
S12367E0BFF36F8FBFF34F8FFEE77047A4040020D4040020064AD2F8D8309869D2F8D83004
S1236800DB6AD2F8D820C3F105039361704700BFA4040020064BD3F8D8302BB1044BD3F865
S1236820D820D36C0133D364014BD3F8D8007047A404002038B505460C4600F0EDFE1C4B78
S1236840D3F8D8301B6D33B9194BD3F8D830012283F85420C4B900F001FF00F0DDFE144B0D
S1236860D3F8D8301C6D2CB1DDB1114BD3F8D83000221A650E4BD3F8D830002283F8542040
S123688000F0ECFE204638BD11462046FEF73AFF084B4FF080521A60BFF34F8FBFF36F8FB6
S12368A0D9E7034BD3F8D830621E1A65E2E700BFA404002004ED00E0F8B506460F4614462B
S12368C01D4600F0A9FE244BD3F8D83093F85420D2B2022A0CD0204BD3F8D820106D20EA38
S12368E006061665D3F8D830012283F85420E5B900F0B4FE00F090FE24B1174BD3F8D83060
S12369001B6D2360144BD3F8D83093F85430DBB2022B17D00024104BD3F8D830002283F897
S1236920542000F09BFE2046F8BD11462846FEF7E9FE0A4B4FF080521A60BFF34F8FBFF378
S12369406F8FD5E7044BD3F8D830196D21EA07071F650124DFE700BFA404002004ED00E0F1
S1236960F8B5A8B10D4616461F46044600F054FE0FB1236D3B6094F85430DBB2022284F845
S12369805420042E1FD8DFE806F02B0C111619004FF0500383F31188BFF36F8FBFF34F8F41
S12369A0FEE7226D1543256501251AE0226D01322265012515E02565012512E0022B16D044
S12369C0256501250DE0226DB2F1FF3F11D04FF0500383F31188BFF36F8FBFF34F8FFEE7FF
S12369E00125012B07D000F039FE2846F8BD0025F7E70125F5E7261D3046FEF773FBE06AB5
S1236A0001228240144BD3F8E4100A43C3F8E420303300EB8000314603EB8000FEF73EFB82
S1236A20A36A43B14FF0500383F31188BFF36F8FBFF34F8FFEE7E26A074BD3F8D830DB6AD5
S1236A409A42D0D9054B4FF080521A60BFF34F8FBFF36F8FC7E700BFA404002004ED00E08C
S1236A602DE9F843089E10B30D4617469946044600F0ECFEEFF311884FF0500383F3118889
